{
  "_format": "hh-sol-artifact-1",
  "contractName": "RealEstateToken",
  "sourceName": "contracts/RealEstateToken.sol",
  "abi": [
    {
      "inputs": [
        {
          "internalType": "address",
          "name": "_ownerr",
          "type": "address"
        },
        {
          "internalType": "string",
          "name": "name_",
          "type": "string"
        },
        {
          "internalType": "string",
          "name": "symbol_",
          "type": "string"
        },
        {
          "internalType": "address",
          "name": "_pli",
          "type": "address"
        }
      ],
      "stateMutability": "nonpayable",
      "type": "constructor"
    },
    {
      "anonymous": false,
      "inputs": [
        {
          "indexed": true,
          "internalType": "address",
          "name": "owner",
          "type": "address"
        },
        {
          "indexed": true,
          "internalType": "address",
          "name": "spender",
          "type": "address"
        },
        {
          "indexed": false,
          "internalType": "uint256",
          "name": "value",
          "type": "uint256"
        }
      ],
      "name": "Approval",
      "type": "event"
    },
    {
      "anonymous": false,
      "inputs": [
        {
          "indexed": true,
          "internalType": "address",
          "name": "previousOwner",
          "type": "address"
        },
        {
          "indexed": true,
          "internalType": "address",
          "name": "newOwner",
          "type": "address"
        }
      ],
      "name": "OwnershipTransferred",
      "type": "event"
    },
    {
      "anonymous": false,
      "inputs": [
        {
          "indexed": true,
          "internalType": "bytes32",
          "name": "id",
          "type": "bytes32"
        }
      ],
      "name": "PluginCancelled",
      "type": "event"
    },
    {
      "anonymous": false,
      "inputs": [
        {
          "indexed": true,
          "internalType": "bytes32",
          "name": "id",
          "type": "bytes32"
        }
      ],
      "name": "PluginFulfilled",
      "type": "event"
    },
    {
      "anonymous": false,
      "inputs": [
        {
          "indexed": true,
          "internalType": "bytes32",
          "name": "id",
          "type": "bytes32"
        }
      ],
      "name": "PluginRequested",
      "type": "event"
    },
    {
      "anonymous": false,
      "inputs": [
        {
          "indexed": true,
          "internalType": "address",
          "name": "from",
          "type": "address"
        },
        {
          "indexed": true,
          "internalType": "address",
          "name": "to",
          "type": "address"
        },
        {
          "indexed": false,
          "internalType": "uint256",
          "name": "value",
          "type": "uint256"
        }
      ],
      "name": "Transfer",
      "type": "event"
    },
    {
      "inputs": [],
      "name": "accumulated",
      "outputs": [
        {
          "internalType": "uint256",
          "name": "",
          "type": "uint256"
        }
      ],
      "stateMutability": "view",
      "type": "function"
    },
    {
      "inputs": [
        {
          "internalType": "address",
          "name": "_stakeholder",
          "type": "address"
        }
      ],
      "name": "addStakeholder",
      "outputs": [],
      "stateMutability": "nonpayable",
      "type": "function"
    },
    {
      "inputs": [
        {
          "internalType": "address",
          "name": "owner",
          "type": "address"
        },
        {
          "internalType": "address",
          "name": "spender",
          "type": "address"
        }
      ],
      "name": "allowance",
      "outputs": [
        {
          "internalType": "uint256",
          "name": "",
          "type": "uint256"
        }
      ],
      "stateMutability": "view",
      "type": "function"
    },
    {
      "inputs": [
        {
          "internalType": "address",
          "name": "spender",
          "type": "address"
        },
        {
          "internalType": "uint256",
          "name": "amount",
          "type": "uint256"
        }
      ],
      "name": "approve",
      "outputs": [
        {
          "internalType": "bool",
          "name": "",
          "type": "bool"
        }
      ],
      "stateMutability": "nonpayable",
      "type": "function"
    },
    {
      "inputs": [
        {
          "internalType": "address",
          "name": "account",
          "type": "address"
        }
      ],
      "name": "balanceOf",
      "outputs": [
        {
          "internalType": "uint256",
          "name": "",
          "type": "uint256"
        }
      ],
      "stateMutability": "view",
      "type": "function"
    },
    {
      "inputs": [],
      "name": "buy",
      "outputs": [
        {
          "internalType": "bool",
          "name": "",
          "type": "bool"
        }
      ],
      "stateMutability": "payable",
      "type": "function"
    },
    {
      "inputs": [],
      "name": "buyStake",
      "outputs": [],
      "stateMutability": "payable",
      "type": "function"
    },
    {
      "inputs": [],
      "name": "collection",
      "outputs": [
        {
          "internalType": "contract IERC721",
          "name": "",
          "type": "address"
        }
      ],
      "stateMutability": "view",
      "type": "function"
    },
    {
      "inputs": [],
      "name": "decimals",
      "outputs": [
        {
          "internalType": "uint8",
          "name": "",
          "type": "uint8"
        }
      ],
      "stateMutability": "view",
      "type": "function"
    },
    {
      "inputs": [
        {
          "internalType": "address",
          "name": "spender",
          "type": "address"
        },
        {
          "internalType": "uint256",
          "name": "subtractedValue",
          "type": "uint256"
        }
      ],
      "name": "decreaseAllowance",
      "outputs": [
        {
          "internalType": "bool",
          "name": "",
          "type": "bool"
        }
      ],
      "stateMutability": "nonpayable",
      "type": "function"
    },
    {
      "inputs": [],
      "name": "distribute",
      "outputs": [],
      "stateMutability": "nonpayable",
      "type": "function"
    },
    {
      "inputs": [
        {
          "internalType": "address",
          "name": "spender",
          "type": "address"
        },
        {
          "internalType": "uint256",
          "name": "addedValue",
          "type": "uint256"
        }
      ],
      "name": "increaseAllowance",
      "outputs": [
        {
          "internalType": "bool",
          "name": "",
          "type": "bool"
        }
      ],
      "stateMutability": "nonpayable",
      "type": "function"
    },
    {
      "inputs": [
        {
          "internalType": "address",
          "name": "_collection",
          "type": "address"
        },
        {
          "internalType": "uint256",
          "name": "_tokenId",
          "type": "uint256"
        },
        {
          "internalType": "uint256",
          "name": "_amount",
          "type": "uint256"
        },
        {
          "internalType": "uint256",
          "name": "_tokenPrice",
          "type": "uint256"
        }
      ],
      "name": "initialize",
      "outputs": [],
      "stateMutability": "nonpayable",
      "type": "function"
    },
    {
      "inputs": [],
      "name": "initialized",
      "outputs": [
        {
          "internalType": "bool",
          "name": "",
          "type": "bool"
        }
      ],
      "stateMutability": "view",
      "type": "function"
    },
    {
      "inputs": [
        {
          "internalType": "address",
          "name": "_address",
          "type": "address"
        }
      ],
      "name": "isStakeholder",
      "outputs": [
        {
          "internalType": "bool",
          "name": "",
          "type": "bool"
        },
        {
          "internalType": "uint256",
          "name": "",
          "type": "uint256"
        }
      ],
      "stateMutability": "view",
      "type": "function"
    },
    {
      "inputs": [],
      "name": "name",
      "outputs": [
        {
          "internalType": "string",
          "name": "",
          "type": "string"
        }
      ],
      "stateMutability": "view",
      "type": "function"
    },
    {
      "inputs": [
        {
          "internalType": "address",
          "name": "",
          "type": "address"
        },
        {
          "internalType": "address",
          "name": "",
          "type": "address"
        },
        {
          "internalType": "uint256",
          "name": "",
          "type": "uint256"
        },
        {
          "internalType": "bytes",
          "name": "",
          "type": "bytes"
        }
      ],
      "name": "onERC721Received",
      "outputs": [
        {
          "internalType": "bytes4",
          "name": "",
          "type": "bytes4"
        }
      ],
      "stateMutability": "nonpayable",
      "type": "function"
    },
    {
      "inputs": [],
      "name": "owner",
      "outputs": [
        {
          "internalType": "address",
          "name": "",
          "type": "address"
        }
      ],
      "stateMutability": "view",
      "type": "function"
    },
    {
      "inputs": [
        {
          "internalType": "address",
          "name": "_stakeholder",
          "type": "address"
        }
      ],
      "name": "removeStakeholder",
      "outputs": [],
      "stateMutability": "nonpayable",
      "type": "function"
    },
    {
      "inputs": [],
      "name": "renounceOwnership",
      "outputs": [],
      "stateMutability": "nonpayable",
      "type": "function"
    },
    {
      "inputs": [],
      "name": "rentPayment",
      "outputs": [],
      "stateMutability": "payable",
      "type": "function"
    },
    {
      "inputs": [
        {
          "internalType": "address",
          "name": "_tenantAddress",
          "type": "address"
        },
        {
          "internalType": "uint256",
          "name": "_rent",
          "type": "uint256"
        }
      ],
      "name": "rentToTenant",
      "outputs": [
        {
          "internalType": "bool",
          "name": "",
          "type": "bool"
        }
      ],
      "stateMutability": "nonpayable",
      "type": "function"
    },
    {
      "inputs": [
        {
          "internalType": "address",
          "name": "",
          "type": "address"
        }
      ],
      "name": "revenues",
      "outputs": [
        {
          "internalType": "uint256",
          "name": "",
          "type": "uint256"
        }
      ],
      "stateMutability": "view",
      "type": "function"
    },
    {
      "inputs": [
        {
          "internalType": "address",
          "name": "_buyer",
          "type": "address"
        },
        {
          "internalType": "uint256",
          "name": "_sellValue",
          "type": "uint256"
        }
      ],
      "name": "sellStakeRequest",
      "outputs": [],
      "stateMutability": "nonpayable",
      "type": "function"
    },
    {
      "inputs": [
        {
          "internalType": "uint256",
          "name": "",
          "type": "uint256"
        }
      ],
      "name": "stakeholders",
      "outputs": [
        {
          "internalType": "address",
          "name": "",
          "type": "address"
        }
      ],
      "stateMutability": "view",
      "type": "function"
    },
    {
      "inputs": [],
      "name": "status",
      "outputs": [
        {
          "internalType": "uint256",
          "name": "",
          "type": "uint256"
        }
      ],
      "stateMutability": "view",
      "type": "function"
    },
    {
      "inputs": [],
      "name": "symbol",
      "outputs": [
        {
          "internalType": "string",
          "name": "",
          "type": "string"
        }
      ],
      "stateMutability": "view",
      "type": "function"
    },
    {
      "inputs": [
        {
          "internalType": "uint256",
          "name": "",
          "type": "uint256"
        }
      ],
      "name": "tenantAddresses",
      "outputs": [
        {
          "internalType": "address",
          "name": "",
          "type": "address"
        }
      ],
      "stateMutability": "view",
      "type": "function"
    },
    {
      "inputs": [],
      "name": "tokenId",
      "outputs": [
        {
          "internalType": "uint256",
          "name": "",
          "type": "uint256"
        }
      ],
      "stateMutability": "view",
      "type": "function"
    },
    {
      "inputs": [],
      "name": "tokenPrice",
      "outputs": [
        {
          "internalType": "uint256",
          "name": "",
          "type": "uint256"
        }
      ],
      "stateMutability": "view",
      "type": "function"
    },
    {
      "inputs": [],
      "name": "totalSupply",
      "outputs": [
        {
          "internalType": "uint256",
          "name": "",
          "type": "uint256"
        }
      ],
      "stateMutability": "view",
      "type": "function"
    },
    {
      "inputs": [
        {
          "internalType": "address",
          "name": "to",
          "type": "address"
        },
        {
          "internalType": "uint256",
          "name": "amount",
          "type": "uint256"
        }
      ],
      "name": "transfer",
      "outputs": [
        {
          "internalType": "bool",
          "name": "",
          "type": "bool"
        }
      ],
      "stateMutability": "nonpayable",
      "type": "function"
    },
    {
      "inputs": [
        {
          "internalType": "address",
          "name": "from",
          "type": "address"
        },
        {
          "internalType": "address",
          "name": "to",
          "type": "address"
        },
        {
          "internalType": "uint256",
          "name": "amount",
          "type": "uint256"
        }
      ],
      "name": "transferFrom",
      "outputs": [
        {
          "internalType": "bool",
          "name": "",
          "type": "bool"
        }
      ],
      "stateMutability": "nonpayable",
      "type": "function"
    },
    {
      "inputs": [
        {
          "internalType": "address",
          "name": "newOwner",
          "type": "address"
        }
      ],
      "name": "transferOwnership",
      "outputs": [],
      "stateMutability": "nonpayable",
      "type": "function"
    }
  ],
  "bytecode": "0x608060405260016004556015805460ff191690553480156200002057600080fd5b5060405162001eda38038062001eda8339810160408190526200004391620002d0565b8251839083906200005c9060099060208501906200015a565b5080516200007290600a9060208401906200015a565b5050506200008f620000896200010460201b60201c565b62000108565b600280546001600160a01b0319166001600160a01b0383161790555050600c80546001810182556000919091527fdf6966c971051c3d54ec59162606531493a51404a002842f56009d7e5cf4a8c70180546001600160a01b0319166001600160a01b03939093169290921790915550620003b0565b3390565b600b80546001600160a01b038381166001600160a01b0319831681179093556040519116919082907f8be0079c531659141344cd1fd0a4f28419497f9722a3daafe3b4186f6b6457e090600090a35050565b82805462000168906200035d565b90600052602060002090601f0160209004810192826200018c5760008555620001d7565b82601f10620001a757805160ff1916838001178555620001d7565b82800160010185558215620001d7579182015b82811115620001d7578251825591602001919060010190620001ba565b50620001e5929150620001e9565b5090565b5b80821115620001e55760008155600101620001ea565b80516001600160a01b03811681146200021857600080fd5b919050565b600082601f8301126200022e578081fd5b81516001600160401b03808211156200024b576200024b6200039a565b604051601f8301601f19908116603f011681019082821181831017156200027657620002766200039a565b8160405283815260209250868385880101111562000292578485fd5b8491505b83821015620002b5578582018301518183018401529082019062000296565b83821115620002c657848385830101525b9695505050505050565b60008060008060808587031215620002e6578384fd5b620002f18562000200565b60208601519094506001600160401b03808211156200030e578485fd5b6200031c888389016200021d565b9450604087015191508082111562000332578384fd5b5062000341878288016200021d565b925050620003526060860162000200565b905092959194509250565b600181811c908216806200037257607f821691505b602082108114156200039457634e487b7160e01b600052602260045260246000fd5b50919050565b634e487b7160e01b600052604160045260246000fd5b611b1a80620003c06000396000f3fe6080604052600436106101f95760003560e01c806378ae98c81161010d578063a6f2ae3a116100a0578063e4fc6b6d1161006f578063e4fc6b6d146105a3578063e5c42fd1146105b8578063ef037b90146105d8578063f2fde38b1461060f578063ff4c84821461062f57600080fd5b8063a6f2ae3a1461053b578063a9059cbb14610543578063bcb0c2d714610563578063dd62ed3e1461058357600080fd5b806385abeac6116100dc57806385abeac6146104c85780638da5cb5b146104e857806395d89b4114610506578063a457c2d71461051b57600080fd5b806378ae98c81461044f5780637a0443231461047c5780637de1e536146104925780637ff9b596146104b257600080fd5b8063200d2ed211610190578063395093511161015f57806339509351146103ba57806345488ac1146103da5780634ec81af1146103e457806370a0823114610404578063715018a61461043a57600080fd5b8063200d2ed21461034857806323b872dd1461035e578063313ce5671461037e5780633246aa361461039a57600080fd5b8063158ef93e116101cc578063158ef93e146102bd57806317d70f7c146102d757806318160ddd146102fb5780631d6b8b721461031057600080fd5b806306fdde03146101fe578063095ea7b3146102295780630e1e612914610259578063150b7a0214610279575b600080fd5b34801561020a57600080fd5b50610213610637565b60405161022091906119a1565b60405180910390f35b34801561023557600080fd5b50610249610244366004611928565b6106c9565b6040519015158152602001610220565b34801561026557600080fd5b50610249610274366004611928565b6106e1565b34801561028557600080fd5b506102a4610294366004611853565b630a85bd0160e11b949350505050565b6040516001600160e01b03199091168152602001610220565b3480156102c957600080fd5b506015546102499060ff1681565b3480156102e357600080fd5b506102ed60145481565b604051908152602001610220565b34801561030757600080fd5b506008546102ed565b34801561031c57600080fd5b5061033061032b366004611989565b61076f565b6040516001600160a01b039091168152602001610220565b34801561035457600080fd5b506102ed600e5481565b34801561036a57600080fd5b50610249610379366004611818565b610799565b34801561038a57600080fd5b5060405160128152602001610220565b3480156103a657600080fd5b506103306103b5366004611989565b6107bd565b3480156103c657600080fd5b506102496103d5366004611928565b6107cd565b6103e26107ef565b005b3480156103f057600080fd5b506103e26103ff366004611951565b61092a565b34801561041057600080fd5b506102ed61041f3660046117cc565b6001600160a01b031660009081526006602052604090205490565b34801561044657600080fd5b506103e2610a70565b34801561045b57600080fd5b506102ed61046a3660046117cc565b600d6020526000908152604090205481565b34801561048857600080fd5b506102ed60105481565b34801561049e57600080fd5b50601354610330906001600160a01b031681565b3480156104be57600080fd5b506102ed600f5481565b3480156104d457600080fd5b506103e26104e3366004611928565b610a84565b3480156104f457600080fd5b50600b546001600160a01b0316610330565b34801561051257600080fd5b50610213610b94565b34801561052757600080fd5b50610249610536366004611928565b610ba3565b610249610c1e565b34801561054f57600080fd5b5061024961055e366004611928565b610da7565b34801561056f57600080fd5b506103e261057e3660046117cc565b610db5565b34801561058f57600080fd5b506102ed61059e3660046117e6565b610eb0565b3480156105af57600080fd5b506103e2610edb565b3480156105c457600080fd5b506103e26105d33660046117cc565b611066565b3480156105e457600080fd5b506105f86105f33660046117cc565b6110d1565b604080519215158352602083019190915201610220565b34801561061b57600080fd5b506103e261062a3660046117cc565b61114a565b6103e26111c0565b60606009805461064690611a62565b80601f016020809104026020016040519081016040528092919081815260200182805461067290611a62565b80156106bf5780601f10610694576101008083540402835291602001916106bf565b820191906000526020600020905b8154815290600101906020018083116106a257829003601f168201915b5050505050905090565b6000336106d78185856112e1565b5060019392505050565b60006106eb611405565b601280546001810182556000919091527fbb8a6a4669ba250d26cd7a459eca9d215f8307e33aebe50379bc5a3617ec34440180546001600160a01b0319166001600160a01b03851617905561074882670de0b6b3a7640000611a2c565b6001600160a01b038416600090815260116020526040902055506001600e81905592915050565b600c818154811061077f57600080fd5b6000918252602090912001546001600160a01b0316905081565b6000336107a785828561145f565b6107b28585856114d3565b506001949350505050565b6012818154811061077f57600080fd5b6000336106d78185856107e08383610eb0565b6107ea91906119f4565b6112e1565b33600090815260166020908152604091829020825160608101845281546001600160a01b0390811682526001830154169281019290925260020154918101829052906108955760405162461bcd60e51b815260206004820152602a60248201527f4e6f207374616b652073656c6c207265717565737420666f72207468697320736044820152693a30b5b290313abcb2b960b11b60648201526084015b60405180910390fd5b806040015134146108e85760405162461bcd60e51b815260206004820152601e60248201527f496e76616c69642076616c756520666f72207468697320726571756573740000604482015260640161088c565b8051610913903361090e826001600160a01b031660009081526006602052604090205490565b6114d3565b61091c33611066565b805161092790610db5565b50565b610932611405565b60155460ff161561097b5760405162461bcd60e51b8152602060048201526013602482015272105b1c9958591e481a5b9a5d1a585b1a5e9959606a1b604482015260640161088c565b600082116109cb5760405162461bcd60e51b815260206004820152601e60248201527f416d6f756e74206e6565647320746f206265206d6f7265207468616e20300000604482015260640161088c565b601380546001600160a01b0319166001600160a01b038616908117909155604051632142170760e11b8152336004820152306024820152604481018590526342842e0e90606401600060405180830381600087803b158015610a2c57600080fd5b505af1158015610a40573d6000803e3d6000fd5b5050506014849055506015805460ff19166001179055600f8190556000600e55610a6a338361167e565b50505050565b610a78611405565b610a82600061173f565b565b6000610a8f336110d1565b509050600181151514610ae45760405162461bcd60e51b815260206004820152601e60248201527f726571756573746572206973206e6f742061207374616b65686f6c6465720000604482015260640161088c565b60008211610b2c5760405162461bcd60e51b8152602060048201526015602482015274073656c6c56616c75652063616e6e6f74206265203605c1b604482015260640161088c565b50604080516060810182523381526001600160a01b03938416602080830182815283850195865260009283526016909152929020905181549085166001600160a01b031991821617825591516001820180549190951692169190911790925551600290910155565b6060600a805461064690611a62565b60003381610bb18286610eb0565b905083811015610c115760405162461bcd60e51b815260206004820152602560248201527f45524332303a2064656372656173656420616c6c6f77616e63652062656c6f77604482015264207a65726f60d81b606482015260840161088c565b6107b282868684036112e1565b6000803490506000600c600081548110610c4857634e487b7160e01b600052603260045260246000fd5b60009182526020822001546040516001600160a01b039091169134919081818185875af1925050503d8060008114610c9c576040519150601f19603f3d011682016040523d82523d6000602084013e610ca1565b606091505b5050905080610ce95760405162461bcd60e51b81526020600482015260146024820152732330b4b632b2103a379039b2b7321022ba3432b960611b604482015260640161088c565b610d47600c600081548110610d0e57634e487b7160e01b600052603260045260246000fd5b600091825260209091200154600f546001600160a01b03909116903390610d3d90670de0b6b3a7640000611a2c565b61090e9086611a0c565b6000610d52336110d1565b50905080610d9d57600c80546001810182556000919091527fdf6966c971051c3d54ec59162606531493a51404a002842f56009d7e5cf4a8c70180546001600160a01b031916331790555b6001935050505090565b6000336106d78185856114d3565b610dbd611405565b600080610dc9836110d1565b915091508115610eab57600c8054610de390600190611a4b565b81548110610e0157634e487b7160e01b600052603260045260246000fd5b600091825260209091200154600c80546001600160a01b039092169183908110610e3b57634e487b7160e01b600052603260045260246000fd5b9060005260206000200160006101000a8154816001600160a01b0302191690836001600160a01b03160217905550600c805480610e8857634e487b7160e01b600052603160045260246000fd5b600082815260209020810160001990810180546001600160a01b03191690550190555b505050565b6001600160a01b03918216600090815260076020908152604080832093909416825291909152205490565b610ee3611405565b60005b600c54811015610fc5576000600c8281548110610f1357634e487b7160e01b600052603260045260246000fd5b60009182526020822001546001600160a01b03169150610f3260085490565b6001600160a01b038316600090815260066020526040902054610f559047611a2c565b610f5f9190611a0c565b601054909150610f6f9082611791565b6010556001600160a01b0382166000908152600d6020526040902054610f9590826117a4565b6001600160a01b039092166000908152600d602052604090209190915550610fbe6001826119f4565b9050610ee6565b5060005b600c54811015610927576000600c8281548110610ff657634e487b7160e01b600052603260045260246000fd5b60009182526020808320909101546001600160a01b0316808352600d9091526040808320805490849055905191935091839183156108fc0291849190818181858888f1935050505015801561104f573d6000803e3d6000fd5b50505060018161105f91906119f4565b9050610fc9565b61106e611405565b6000611079826110d1565b509050806110cd57600c80546001810182556000919091527fdf6966c971051c3d54ec59162606531493a51404a002842f56009d7e5cf4a8c70180546001600160a01b0319166001600160a01b0384161790555b5050565b60008060005b600c5481101561113e57600c818154811061110257634e487b7160e01b600052603260045260246000fd5b6000918252602090912001546001600160a01b038581169116141561112c57600194909350915050565b6111376001826119f4565b90506110d7565b50600093849350915050565b611152611405565b6001600160a01b0381166111b75760405162461bcd60e51b815260206004820152602660248201527f4f776e61626c653a206e6577206f776e657220697320746865207a65726f206160448201526564647265737360d01b606482015260840161088c565b6109278161173f565b346000805b60125481101561122357601281815481106111f057634e487b7160e01b600052603260045260246000fd5b6000918252602090912001546001600160a01b031633141561121157600191505b8061121b81611a9d565b9150506111c5565b506001811515146112765760405162461bcd60e51b815260206004820152601860248201527f4f6e6c792054656e616e742063616e207061792072656e740000000000000000604482015260640161088c565b3360009081526011602052604090205482146112c65760405162461bcd60e51b815260206004820152600f60248201526e14d95b9908115e1858dd0814995b9d608a1b604482015260640161088c565b81601060008282546112d891906119f4565b90915550505050565b6001600160a01b0383166113435760405162461bcd60e51b8152602060048201526024808201527f45524332303a20617070726f76652066726f6d20746865207a65726f206164646044820152637265737360e01b606482015260840161088c565b6001600160a01b0382166113a45760405162461bcd60e51b815260206004820152602260248201527f45524332303a20617070726f766520746f20746865207a65726f206164647265604482015261737360f01b606482015260840161088c565b6001600160a01b0383811660008181526007602090815260408083209487168084529482529182902085905590518481527f8c5be1e5ebec7d5bd14f71427d1e84f3dd0314c0f7b2291e5b200ac8c7c3b925910160405180910390a3505050565b600b546001600160a01b03163314610a825760405162461bcd60e51b815260206004820181905260248201527f4f776e61626c653a2063616c6c6572206973206e6f7420746865206f776e6572604482015260640161088c565b600061146b8484610eb0565b90506000198114610a6a57818110156114c65760405162461bcd60e51b815260206004820152601d60248201527f45524332303a20696e73756666696369656e7420616c6c6f77616e6365000000604482015260640161088c565b610a6a84848484036112e1565b6001600160a01b0383166115375760405162461bcd60e51b815260206004820152602560248201527f45524332303a207472616e736665722066726f6d20746865207a65726f206164604482015264647265737360d81b606482015260840161088c565b6001600160a01b0382166115995760405162461bcd60e51b815260206004820152602360248201527f45524332303a207472616e7366657220746f20746865207a65726f206164647260448201526265737360e81b606482015260840161088c565b6001600160a01b038316600090815260066020526040902054818110156116115760405162461bcd60e51b815260206004820152602660248201527f45524332303a207472616e7366657220616d6f756e7420657863656564732062604482015265616c616e636560d01b606482015260840161088c565b6001600160a01b0380851660008181526006602052604080822086860390559286168082529083902080548601905591517fddf252ad1be2c89b69c2b068fc378daa952ba7f163c4a11628f55a4df523b3ef906116719086815260200190565b60405180910390a3610a6a565b6001600160a01b0382166116d45760405162461bcd60e51b815260206004820152601f60248201527f45524332303a206d696e7420746f20746865207a65726f206164647265737300604482015260640161088c565b80600860008282546116e691906119f4565b90915550506001600160a01b0382166000818152600660209081526040808320805486019055518481527fddf252ad1be2c89b69c2b068fc378daa952ba7f163c4a11628f55a4df523b3ef910160405180910390a35050565b600b80546001600160a01b038381166001600160a01b0319831681179093556040519116919082907f8be0079c531659141344cd1fd0a4f28419497f9722a3daafe3b4186f6b6457e090600090a35050565b600061179d8284611a4b565b9392505050565b600061179d82846119f4565b80356001600160a01b03811681146117c757600080fd5b919050565b6000602082840312156117dd578081fd5b61179d826117b0565b600080604083850312156117f8578081fd5b611801836117b0565b915061180f602084016117b0565b90509250929050565b60008060006060848603121561182c578081fd5b611835846117b0565b9250611843602085016117b0565b9150604084013590509250925092565b60008060008060808587031215611868578081fd5b611871856117b0565b935061187f602086016117b0565b925060408501359150606085013567ffffffffffffffff808211156118a2578283fd5b818701915087601f8301126118b5578283fd5b8135818111156118c7576118c7611ace565b604051601f8201601f19908116603f011681019083821181831017156118ef576118ef611ace565b816040528281528a6020848701011115611907578586fd5b82602086016020830137918201602001949094529598949750929550505050565b6000806040838503121561193a578182fd5b611943836117b0565b946020939093013593505050565b60008060008060808587031215611966578384fd5b61196f856117b0565b966020860135965060408601359560600135945092505050565b60006020828403121561199a578081fd5b5035919050565b6000602080835283518082850152825b818110156119cd578581018301518582016040015282016119b1565b818111156119de5783604083870101525b50601f01601f1916929092016040019392505050565b60008219821115611a0757611a07611ab8565b500190565b600082611a2757634e487b7160e01b81526012600452602481fd5b500490565b6000816000190483118215151615611a4657611a46611ab8565b500290565b600082821015611a5d57611a5d611ab8565b500390565b600181811c90821680611a7657607f821691505b60208210811415611a9757634e487b7160e01b600052602260045260246000fd5b50919050565b6000600019821415611ab157611ab1611ab8565b5060010190565b634e487b7160e01b600052601160045260246000fd5b634e487b7160e01b600052604160045260246000fdfea2646970667358221220805cb95909064e2bda2d9bd7339dcf6e5d6f8472b33be42a6fac356d5f4c82bf64736f6c63430008040033",
  "linkReferences": {},
  "deployedLinkReferences": {}
}